:1070000055C000008FC000008DC000008BC0000084
:1070100089C0000087C0000085C0000083C0000058
:1070200081C000007FC00000ACC200007BC0000037
:1070300079C0000077C0000075C0000073C0000078
:1070400071C000006FC000006DC000006BC0000088
:1070500069C0000067C0000065C0000063C0000098
:1070600061C000005FC000005DC000005BC00000A8
:1070700059C0000057C0000055C0000053C00000B8
:1070800051C000004FC000004DC000004BC00000C8
:1070900049C0000047C0000045C0000043C00000D8
:1070A00041C000003FC000003DC0000011241FBED1
:1070B000CFEFDAE0DEBFCDBF809154008870882327
:1070C000E1F0809154019091550182342CED9207AA
:1070D000A1F480915400877F8093540088E10FB61B
:1070E000F89480936000109260000FBE10925501DA
:1070F00010925401E0E0F0E0099511E0A0E0B1E069
:10710000E6E3F9E702C005900D92AA34B107D9F77A
:1071100011E0AAE4B1E001C01D92A435B107E1F786
:1071200002D007C46DCFCF93DF93CDB7DEB71ED0AB
:10713000789401C0E5D3809100018823D9F780912C
:10714000E00081608093E00082E49CED9093550123
:107150008093540188E190E02CE00FB6F894A89554
:10716000809360000FBE20936000FFCFCF93DF932A
:10717000CDB7DEB780915400877F8093540088E1BB
:107180000FB6F89480936000109260000FBE80E804
:1071900090E00FB6F89480936100909361000FBE69
:1071A00081E08093550082E080935500CDD1DF913E
:1071B000CF910895CF93DF9300D01F92CDB7DEB764
:1071C00088E090E09B838A83198209C089818F5F60
:1071D00089838A819B81880F991F9B838A838A81F7
:1071E0009B818034910590F389818295807F8260B4
:1071F000482F61EC81E03CD10F900F900F90DF9110
:10720000CF910895CF93DF9300D000D01F92CDB7D8
:10721000DEB780914C018F77813209F072C0809186
:107220004D01893009F06DC08091E800877F80931F
:10723000E8008091E80084708823D9F38091F10000
:107240008C838091F1008D834C815D814F3F8FEF66
:10725000580719F4109200014EC083E0FA018093A0
:107260005700E8958091570081708823D9F71982DB
:1072700031C08091F300882F90E0382F2227809131
:10728000F200882F90E0822B932B009751F480918D
:10729000E8008B778093E8008091E8008470882371
:1072A000D9F38981882F90E0880F991F840F951F4B
:1072B0002091F1002A832091F1002B832A813B81C8
:1072C00061E0FC01090160935700E8951124898170
:1072D0008F5F89838981803460F285E0FA01809331
:1072E0005700E8958091570081708823D9F781E194
:1072F00080935700E8958091E8008B778093E800B1
:10730000CBD00F900F900F900F900F90DF91CF91F7
:107310000895CF93DF93CDB7DEB72B970FB6F894D0
:10732000DEBF0FBECDBF9F838E83798768875B8763
:107330004A878E819F81892F99278D838D81813006
:1073400079F08D818230A9F08D818132D9F085E18B
:1073500090E09C838B8381E091E09A8389831AC0BB
:1073600082E190E09C838B8386E191E09A8389831C
:1073700011C082E290E09C838B8388E291E09A8343
:10738000898308C089E090E09C838B838AE391E045
:107390009A8389838A859B8529813A81FC0131837F
:1073A00020838B819C812B960FB6F894DEBF0FBE95
:1073B000CDBFDF91CF9108952091520130915301BB
:1073C0002617370748F06115710539F42091E80058
:1073D0002E772093E80001C0B901FC0120E061157F
:1073E000710571F18EB38823E9F18530E9F180915F
:1073F000E80083FD3BC08091E80082FD2DC08091B4
:10740000E80080FFECCF2091F3008091F20090E043
:10741000922B6115710551F08830910538F4219156
:107420002093F100615071090196F3CF21E0089794
:1074300009F020E08091E8008E778093E800CFCFBC
:107440002111D0CF09C08EB3882361F0853061F05F
:107450008091E80083FD0AC08091E80082FFF3CFAD
:1074600080E0089582E0089583E0089581E0089522
:107470008F708093E900EBEEF0E080818160808383
:10748000EDEEF0E010826093EC0040838091EE001E
:10749000881F8827881F089580914C0187FF0FC09F
:1074A0008091E80082FD04C08EB38111F9CF10C035
:1074B0008091E8008B770AC08EB3882349F08091D1
:1074C000E80080FFF9CF8091E8008E778093E80094
:1074D00008950F931F93CF93DF9346D04DD0C8EDFF
:1074E000D0E088818F7788838881806888838881CD
:1074F0008F7D888319BC1EBA10924A0100EE10E0FD
:10750000F80180818B7F808388818160888342E05D
:1075100060E080E0ADDFE1EEF0E080818E7F80838F
:10752000E2EEF0E0808181608083808188608083EA
:10753000F80180818E7F8083888180618883DF91DC
:10754000CF911F910F910895E8EDF0E080818F7E3B
:107550008083E7EDF0E080818160808384E082BFFA
:1075600081E080934B01B5CFE8EDF0E080818E7F24
:1075700080831092E20008951092DA001092E100E8
:1075800008951F920F920FB60F9211242F933F93DD
:107590004F935F936F937F938F939F93AF93BF931B
:1075A000EF93FF938091DA0080FF1BC08091D80099
:1075B00080FF17C08091DA008E7F8093DA0080917F
:1075C000D90080FF0BC080E189BD82E189BD09B48B
:1075D00000FEFDCF81E08EBB92D103C019BC1EBA64
:1075E0008ED18091E10080FF17C08091E20080FF82
:1075F00013C08091E2008E7F8093E2008091E200D0
:1076000080618093E2008091D80080628093D800EE
:1076100019BC85E08EBB73D18091E10084FF2EC040
:107620008091E20084FF2AC080E189BD82E189BDAA
:1076300009B400FEFDCF8091D8008F7D8093D800E3
:107640008091E1008F7E8093E1008091E2008F7E47
:107650008093E2008091E20081608093E20080915B
:107660004A01882311F084E007C08091E30087FD80
:1076700002C081E001C083E08EBB41D18091E10076
:1076800083FF21C08091E20083FF1DC08091E10053
:10769000877F8093E10082E08EBB10924A01809147
:1076A000E1008E7F8093E1008091E2008E7F8093E5
:1076B000E2008091E20080618093E20042E060E0BD
:1076C00080E0D6DE1CD1FF91EF91BF91AF919F91E9
:1076D0008F917F916F915F914F913F912F910F907B
:1076E0000FBE0F901F9018951F93CF93DF9300D07C
:1076F000CDB7DEB7ECE4F1E084E591E02091F10054
:1077000021938E179F07D1F77DDD8091E80083FFDD
:10771000E2C080914C0190914D01953009F466C012
:1077200030F4913059F168F0933041F1D4C0983081
:1077300009F49FC0993009F4AEC0963009F0CBC06F
:1077400076C0803881F0823809F0C5C08091500140
:107750008F708093E9008091EB0085FB882780F98A
:107760001092E90001C080E09091E800977F90932B
:10777000E8008093F1001092F10086C0282F2D7F41
:1077800009F0A9C0823009F0A6C080914E01811194
:1077900027C0809150018F7009F49DC08093E9004B
:1077A0002091EB0020FF1CC0933021F48091EB006E
:1077B000806214C09091EB0090619093EB0021E007
:1077C00030E0A90102C0440F551F8A95E2F74093AB
:1077D000EA001092EA008091EB0088608093EB0051
:1077E0001092E9008091E800877F51C0811173C039
:1077F00010914E011F778091E3008078812B809358
:10780000E3008091E800877F8093E80045DE809167
:10781000E80080FFFCCF8091E30080688093E30064
:10782000111102C082E001C083E08EBB54C08058B9
:10783000823008F050C06091500170915101AE014A
:107840004F5F5F4F80914E0190914F0162DDBC010F
:10785000892B09F440C09091E800977F9093E8004D
:1078600089819A81A9DD8091E8008B778093E80077
:1078700032C0803881F58091E800877F8093E800EE
:1078800080914A018093F1008091E8008E77809387
:10789000E80002DE20C081111EC080914E0190914F
:1078A0004F0199270297BCF48091E800877F80936D
:1078B000E80080914E0180934A01EEDD80914A01FB
:1078C000811106C08091E30087FD02C081E001C004
:1078D00084E08EBB6FDC8091E80083FF0AC080915A
:1078E000E800877F8093E8008091EB0080628093BE
:1078F000EB000F900F90DF91CF911F9108950895A5
:10790000CF938EB3882399F0C091E900CF70909106
:10791000EC00892F817090FD80E8C82B1092E9005F
:107920008091E80083FDE0DECF70C093E900CF9145
:067930000895F894FFCF5A
:107936000106DCFF09FBA1010902150025FF7508F8
:107946009682009102C01201100100000008EB03AC
:1079560067200100000000010902220001010080E9
:107966003209040000010300000009211101000191
:0A79760022150007058103400005FB
:040000030000700089
:00000001FF
